:020000040800F2
:10000000A00A0020D9000008B51B000867170008E7
:1000100000000000000000000000000000000000E0
:10002000000000000000000000000000611E000849
:100030000000000000000000D11B0008C91E0008DD
:10004000EB000008EB000008EB000008EB000008E4
:10005000EB00000819030008EB0000082303000868
:1000600000000000EB000008EB000008EB000008B7
:10007000EB000008EB000008EB000008EB000008B4
:10008000EB000008EB000008EB000008411F00082F
:1000900000000000EB000008EB000008EB00000887
:1000A000EB000008EB000008EB000008EB00000884
:1000B000EB000008EB00000800000000000000005A
:1000C0000448854600F0A8F800480047412B000886
:1000D000C046C046A00A00200448804704480047A4
:1000E000FEE7FEE7FEE7FEE7FEE7FEE73D1F00084E
:1000F000C100000830B50B46014600202022012433
:1001000009E00D46D5409D4205D31D469540491B4B
:100110002546954040191546521E002DF1DC30BD94
:10012000F0B51FB40646002082B005464024019178
:1001300000901BE0019922460F46304600F05BF824
:10014000049A059B801A994110D3104619462246FD
:1001500000F041F8361A8F41019722460120002114
:10016000009F00F038F838184D4100902046641E7A
:100170000028DFDC019B00982946324607B0F0BD1D
:1001800003460B439B0703D009E008C9121F08C0B0
:10019000042AFAD203E00B780370401C491C521E5B
:1001A000F9D27047D2B201E00270401C491EFBD266
:1001B00070470022F6E710B513460A460446194672
:1001C000FFF7F0FF204610BD421C0178401C0029BB
:1001D000FBD1801A704710B5202A04DB0146203A73
:1001E0009140002010BD914020239C1A0346E3401B
:1001F0001943904010BD10B5202A04DB0846203A70
:10020000D040002110BD0B46D340D0402024A21A7C
:1002100091400843194610BD064C0125064E05E0E5
:10022000E36807CC2B430C3C98471034B442F7D317
:10023000FFF74AFF344200085442000810B50B4A49
:100240000028918810D03120C04340180146084B47
:100250003239994207D881B204489180032305A21C
:10026000743002F0C1FF10BD3220EEE71806002006
:10027000B60300006D56000010B5FFF7A5FF06217C
:100280004843C10F081840104021081A10BD000053
:1002900010B5114CE07800280ED0012811D00228AA
:1002A00014D0032807D1012103F01AF80020E070D0
:1002B000002103F015F810BD012103F011F8012011
:1002C000F5E7012103F00CF80220F0E7012103F02B
:1002D00007F80320EBE700009806002010B50D4852
:1002E000C078002809D001280BD002280DD003289F
:1002F00002D10120FFF7A2FF10BD012002F0CAF9D0
:1003000010BD012000F01CF810BD012001F0AAFD75
:1003100010BD00009806002010B5012000F07AF80A
:1003200010BD10B5402000F075F80120C00200F0AB
:1003300071F80120000300F06DF810BD72B6FEE701
:100340000A4A10B5114613688968002800D049424E
:10035000C918074B481E984206D80448116001236B
:1003600004A25C3002F040FF10BD0000180600201F
:100370007F969800487A000070B5044600F04AF96C
:100380000546601C02D004480078241800F042F9A9
:10039000401BA042FAD370BD0400002070B51A4E75
:1003A00001223546D202012480350321904202D138
:1003B0002C70317370BD40280DD00128FAD1022174
:1003C000124800F013F9124902224870002805D0A3
:1003D00001280DD012E02C70B17370BD087801288F
:1003E0000CD18878002809D18C706C70F27370BDC4
:1003F0000878002802D18878002801D08A7070BD62
:100400008C706C70F47370BD1806002000040050EE
:100410000000002070B5084D0446E868204203D073
:10042000EC60204600F00AF82869204203D02C61D5
:100430002046FFF7B3FF70BD0018024070B50125DC
:10044000012809D02903884205D10E480D490570BD
:1004500003208039487370BD0B4CA078022804D06B
:10046000012802D00220A07070BD0221074800F0D0
:10047000BDF80021012802D02170A17070BDA170CB
:10048000257070BD98060020000000200004005078
:10049000F0B5002303249AE02A4601259D402A4016
:1004A0007ED00E79B607B60F012E01D0022E16D1DE
:1004B00086682746B4465E00B646B7406646BE43E9
:1004C000B446CF687646B74066463743876046688D
:1004D000AE430D79ED06ED0F9D40354345600D7936
:1004E000ED43AD0708D0C5685F002646BE40B54362
:1004F0008E68BE402E43C6600D79AD07AD0F022D4C
:100500000ED1DD08AD002D18AC462D6A5E07F60E43
:100510000F27B740BD430F69B7402F4365462F6291
:1005200005685F002646BE40B5430E79B607B60F94
:10053000BE402E4306604D68AD03AD0F46D09E0809
:10054000264DB6007519AC462D6E9E07F60E0F2788
:10055000B740BD4305273F07B84201D100270FE050
:100560001F4FB84201D101270AE01E4FB84201D106
:10057000022705E01C4FB84201D1032700E0052700
:10058000B7402F43154D664637662D684E68954334
:10059000F60200D51543114F3D607D68954300E09C
:1005A00014E04E68B60200D515437D600B4D8035D2
:1005B0006E684F689643BF0300D516436E602E6881
:1005C0004F689643FF0300D516432E605B1C0A68F4
:1005D0001546DA4000D05FE7F0BD00000018024089
:1005E0000004005000080050000C00500069084052
:1005F00000D001207047426913460B401B04914311
:100600000B4383617047002A01D08161704781628A
:100610007047000001488068704700000400002017
:1006200002488168027889188160704704000020C0
:1006300010B50848002401688215114301600320A9
:1006400000F00AF8002801D0012401E000F028F8A9
:10065000204610BD0020024070B50F4E00243178B6
:100660000546002915D07D20C000FFF743FD014657
:100670000A480068FFF73EFD00F0FCFC002808D1A6
:10068000042D06D200222946401E00F02BF875608A
:1006900000E00124204670BD04000020100000206E
:1006A00008B5094801680122114301600068104043
:1006B000009005484038C26B01040A43C263C06B16
:1006C0000840009008BD000040100240002805DBF3
:1006D000C106C90E0120884001490860704700002A
:1006E00000E100E010B502F02DF810BD10B50F4C80
:1006F000216803225202914301432160C11FFF3947
:10070000FA390ED10A480621006848430949FFF723
:10071000F1FC401C02E0002805D0401E616949053B
:10072000F9D4002010BD032010BD0000007000406F
:100730001000002040420F00F8B50F46060043D0DD
:100740004D4D28684007400FB84213D22868C008B2
:10075000C00038432860FFF75DFF044605E0FFF75F
:1007600059FF011B4548814261D828684007400F66
:10077000B842F4D13068424C81070DD5400704D50A
:10078000A068072109030843A060A0680F2109029F
:100790008843B1680843A0603078C00732D07068E1
:1007A00001280AD002280BD000280FD0344940314C
:1007B00003280ED0C969890704E02168890301E094
:1007C00021688901002906DB0120F8BD216849055F
:1007D000F8E7096AEFE7A168C908C9000143A16009
:1007E000FFF718FF009006E0FFF714FF0099411A89
:1007F000224881421BD8A068382108407168C9008E
:100800008842F1D128684007400FB84217D91A48EA
:100810000168C908C90039430160FFF7FBFE0546BE
:1008200007E0FFF7F7FE411B1448814201D903207E
:10083000F8BD114800684007400FB842F1D1307848
:10084000400706D5A068072109038843F1680843DB
:10085000A06000F031F8A1683C2289091140094AE2
:10086000515CC906C90EC8400749086007480068BE
:10087000FFF7F2FEF8BD00000020024088130000E0
:1008800000100240FC330008100000200800002087
:100890000648074900688968064A4904490F8900E3
:1008A000515CC906C90EC840704700001000002006
:1008B000001002403C34000810B5204CA068204ACB
:1008C0008006400F16D0A0688006410F1D48012900
:1008D0000FD0A1688906490F022912D0A0688006AE
:1008E000400F042823D0A0688006400F032821D0A1
:1008F000002010BD206801218004400F8140104677
:1009000012E0E1688B07E1689B0F4906490F491C1B
:10091000032B00D01046FFF7EDFBE1684904490EB8
:100920004843E168490F491CFFF7E4FB10BD012073
:10093000C00310BD7D20000210BD00000010024069
:100940000024F400001BB700F8B504007ED0207826
:100950003827C007ED4D002846D0A868E968384020
:100960008907890F102802D008280BD001E003293D
:1009700008D001206268000482420AD1296801433C
:10098000296015E0286880032ED560680028DDD036
:100990002AE0052301211B0489049A422A6802D116
:1009A0000A432A60EAE782432A602868884328606D
:1009B000606800280CD0FFF72DFE064604E0FFF724
:1009C00029FE801B642873D828688003F7D50BE0C4
:1009D000FFF720FE064604E0FFF71CFE801B64289C
:1009E000F1D828688003F7D42078800769D5A868F3
:1009F000E96838408A070721920FC902102802D0FF
:100A0000002813D001E0022A10D0E068002846D068
:100A1000286888432169084328602868FF2101313C
:100A200008432860FFF7F6FD06462CE02A685205C9
:100A300002D5E268002A89D06A687F231B029A43A4
:100A400063691B021A436A60002800E08DE00ED142
:100A500028688843216908432860286801218004A8
:100A6000400F8140AA48FFF745FBAA490860AA4801
:100A70000068FFF7F1FD002877D122E0FFF7CAFDFB
:100A8000801B02289FD828684005F7D568687F2119
:100A900009028843616909020843686011E0296816
:100AA000FF20013081432960FFF7B4FD064605E0D1
:100AB00098E0FFF7AFFD801B022884D82868400526
:100AC000F7D42078954E00072ED5A8688006400FF1
:100AD00003280AD0A0690028306A16D001210843F3
:100AE0003062FFF797FD07460BE0306A80071BD5A1
:100AF000A06900289FD017E0FFF78CFDC01B0228DB
:100B000070D8306A8007F7D50EE0400840003062A8
:100B1000FFF780FD074604E0FFF77CFDC01B0228BD
:100B200060D8306A8007F7D4207840076CD5A86871
:100B300000278006400F042818D0E86BC00008D4B6
:100B4000E96B012000070143E963E96B01400127DC
:100B5000009173480168C90519D4016882151143D1
:100B60000160FFF757FD00900DE083E0F06980071A
:100B70004AD5A06800287DD046E0FFF74BFD0099DC
:100B8000401A02282ED866480068C005F5D5A1682D
:100B9000012910D004200529F16911D04908490024
:100BA000F161F1698143F161A068002816D0FFF777
:100BB00031FD00900EE0F06901210843F061F3E798
:100BC0000143F161F7E7FFF725FD0099411A554808
:100BD000814267D8F0698007F5D50EE0FFF71AFD6E
:100BE000009007E05EE0FFF715FD0099411A4D48BF
:100BF000814257D8F0698007F5D4002F04D0E86B04
:100C0000012109078843E863E06900287BD0A968CF
:100C10008906490F02294FD0012636060228286886
:100C200005D0B0432860FFF7F5FC04463CE0B04334
:100C30002860FFF7EFFC074604E0FFF7EBFCC01B62
:100C400002282FD828688001F7D4616A206AA26A36
:100C50000843E16A120211430843216B0843616BA8
:100C60000843E968304A11400843E8602868304387
:100C7000286000E045E0E868012109070843E860D2
:100C8000FFF7C8FC044604E0FFF7C4FC001B022881
:100C900008D828688001F7D535E0FFF7BBFC001BBA
:100CA000022801D90320F8BD28688001F5D4E8683E
:100CB0001E490840E86026E00128F4D0E868226A6E
:100CC0008107890F91421CD17021626A01409142D3
:100CD00017D17F21A26A090201401202914210D16C
:100CE0001F214904E26A014091420AD107214906C5
:100CF000226B0140914204D1400F616B4007884252
:100D000001D00120F8BD0020F8BD00000010024015
:100D10000024F400100000200800002040100240D1
:100D200000700040881300008C80C111FCFFFEEEB3
:100D3000F8B504000CD0606A002500280AD02561AF
:100D4000656126464036A562707F002808D00BE01A
:100D50000120F8BD6168C81FFD38F2D0E561F0E7F9
:100D60003577204600F05CF802227277206801682F
:100D70004023994301600723E1681B02994201D98E
:100D8000002001E0012000030F273F02B94202D0FA
:100D9000994200D0A562FF236168053319402127DD
:100DA000A368BF023B40194323691340227D1943C6
:100DB000D207D20F11430123A2695B021A401143EB
:100DC000E26938231A401143226A80231A401143F2
:100DD000A26A9B011A40114322681160A169042292
:100DE000090C1140626A10231A401143626B0823F8
:100DF0001A4011430F23E2681B021A4011430122DB
:100E0000120310400143206841602068C1695210FC
:100E10009143C1612566012070770020F8BD000074
:100E200010B586B0044614216846FFF7C2F911498F
:100E3000206888421BD11048026881140A4302606E
:100E40000068084005900C484038426B02210A4374
:100E50004263406B019108400590382000900020CB
:100E600002900390049069460448FFF711FB06B016
:100E700010BD00000030014040100240000400504E
:100E8000FFB5044683B0012001900020254640357F
:100E90000090287F0C9F1E4601280FD00120287744
:100EA000FFF7B8FB0290687F616801280DD0CA1F68
:100EB000FD3A08D1A168002905D102E0022007B05F
:100EC000F0BD042801D00220D1E00498002820D0F1
:100ED000059800281DD0002E1BD0687F042801D063
:100EE000052068770020206605992164EE80AE8099
:100EF0000499A163E687A687E064206507210120A5
:100F0000E268090200038A422268536803D98343D6
:100F100002E00120ABE00343536020680268520600
:100F200003D4026840231A430260E0688842606884
:100F300044D9002801D0012E39D1A06B2168008846
:100F4000C860A06B801CA063E08F401EE0872EE08D
:100F500020688168890710D5E18F00290DD001999B
:100F600001290AD1A16B0988C160A06B801CA06314
:100F7000E08F401EE0870020019020688168C9074B
:100F80000DD0E98800290AD0C068216C0880206C47
:100F9000801C2064E888401EE88001200190FFF753
:100FA00039FB0299401AB84201D3781C5ED1E08F18
:100FB0000028CDD1E8880028CAD146E0002801D019
:100FC000012E3CD1A06B216800780873A06B401CF7
:100FD000A063E08F401EE08731E0206881688907C8
:100FE00010D5E18F00290DD0019901290AD1A16BFB
:100FF00009780173A06B401CA063E08F401EE0875E
:101000000020019020688168C9070DD0E988002977
:101010000AD0007B216C0870206C401C2064E8889A
:10102000401EE88001200190FFF7F4FA0299401A6F
:10103000B84202D3781C02D018E0002F16D0E08FFF
:101040000028CAD1E8880028C7D139462046029A2C
:1010500000F018FE002803D0012000902020206618
:101060000120687700202877009828E70320009067
:10107000F6E70000094910B5401E884201D9012059
:1010800010BD074C60610321081F01F05BFB0020CD
:10109000A06107202061002010BD0000FFFFFF00BD
:1010A00000E000E0704770477047000070B50346ED
:1010B00020331A7F012A4BD001221A770325CA68F0
:1010C0002D02AA438D6800682A430125AD02AA4378
:1010D0004D6800242A430125ED02AA430D682A43E6
:1010E00001252D03AA430D692A4301256D03AA4357
:1010F0004D692A430125AD03AA430D6B2A430F25F1
:101100002D04AA430D8B2D042A43124DA84204D16D
:1011100001263607B243CE693243A84214D10F25C7
:101120002D05AA430D8D2D052A4301252D06AA4321
:101130000D6A2A4301256D06AA434D6AC96A2A43EE
:1011400001256D07AA430A4342641C77002070BD45
:10115000022070BD002C014070B5040005D025466A
:101160002035687F002802D006E0012070BD0020F5
:101170002877204600F016F802206877211D2068A5
:1011800000F0E6FE012240342272AA77EA7722704C
:101190006270A270E27022716271A271E2716A776C
:1011A000002070BD08B5104A0168104891420FD167
:1011B0000268C9130A4302600068002208400090D8
:1011C00011461320FFF78EFA1320FFF77FFA08BDB0
:1011D000074A9142FBD10268012149040A43026097
:1011E00000680840009008BD002000404010024008
:1011F00000440140014620314A7F012A01D00120EC
:10120000704702224A770168CB6801221343CB6002
:1012100000680B49884205D09107884202D00949ED
:10122000884207D18168084B1940062905D0DB1F89
:10123000994202D00168114301600020704700000C
:10124000002C01400004004007000100704700002E
:1012500070B50446006801690025C9438907002963
:1012600015DBC168C943890711D4E91E016101205A
:101270002077206880698007204602D0FFF7E6FFCC
:1012800004E000F0CDF8204600F086F925772068CC
:101290000169C943490717D4C168C943490713D431
:1012A0000421C943016102202077206880698005FC
:1012B000800F204602D0FFF7C9FF04E000F0B0F82D
:1012C000204600F069F9257720680169C9430907BC
:1012D00016D4C168C943090712D40821C943016162
:1012E000042020772068C0698007204602D0FFF7DD
:1012F000ADFF04E000F094F8204600F04DF92577AA
:1013000020680169C943C90617D4C168C943C90621
:1013100013D41021C9430161082020772068C069D7
:101320008005800F204602D0FFF790FF04E000F018
:1013300077F8204600F030F9257720680169C94325
:10134000C90708D1C168C943C90704D1891E016111
:10135000204600F023F920680169C943090609D431
:10136000C168C943090605D48021C94301612046EB
:10137000FFF799FE20680169C943C90508D4C1680F
:10138000C943090604D4124901612046FFF78AFEC9
:1013900020680169C943490609D4C168C94349069F
:1013A00005D44021C9430161204600F011F92068AD
:1013B0000169C943890609D4C168C943890605D4AE
:1013C0002021C94301612046FFF76EFE70BD000079
:1013D000FFFEFFFF10B586B0044614216846FEF7F5
:1013E000E8FE0D492068884214D10C48416B012267
:1013F00011434163406B69461040059040200090C6
:101400000220019000200290039005200490000724
:10141000FFF73EF806B010BD004401400010024046
:101420007047F8B504460020264620360090307FED
:101430000D4601280CD00120082730770C2A48D00F
:1014400008DC002A10D0042A1ED0082A06D130E079
:101450000220F8BD102A52D0142A60D0012000903A
:10146000002030770098F8BD206800F0B3FD2068B8
:1014700081693943816120688169042291438161D6
:10148000206881692A6911E0206800F0E1FD206888
:1014900081690122D2021143816120688169521061
:1014A00091438161206881692A6912021143816137
:1014B000D6E7206800F00AFE2068C1693943C1619F
:1014C0002068C16904229143C1612068C1692A6909
:1014D00012E0206800F038FE2068C1690122D202C3
:1014E0001143C1612068C269012189028A43C26136
:1014F0002068C1692A6912021143C161B0E72068FE
:1015000000F058FE2068416D394341652068426D06
:1015100004218A4342652068416D2A6912E02068EF
:1015200000F076FE2068416D0122D2021143416530
:101530002068426D012189028A4342652068416D1D
:101540002A691202114341658AE770B5040005D08B
:1015500025462035687F002802D006E0012070BDB6
:1015600000202877204600F016F802206877211D19
:10157000206800F0EDFC012240342272AA77EA775D
:1015800022706270A270E27022716271A271E271C7
:101590006A77002070BD70477047000010B5006882
:1015A000084988420DD1084C207901F087FE207946
:1015B000002802D10548011F086100F00BFB01F073
:1015C00055FD10BD00200040980600205800002066
:1015D000704770B5040005D025468035A8680028FE
:1015E00002D006E0012070BD00202871204600F0E6
:1015F00027F82420A8602068016849084900016094
:10160000204600F0D7FE0128EDD0A06A002802D0C5
:10161000204600F037FE206841680922D20291433B
:101620004160206881682A229143816020680168B6
:10163000012211430160204600F08AFE70BD0000C7
:1016400010B586B0044614216846FEF7B2FD114974
:10165000206888421CD11048C26B012149040A430A
:10166000C263C26B0A400592426B01210A43426386
:10167000406B0491084005900C20009002200190DE
:10168000002002900390052069460007FEF700FF46
:1016900006B010BD0044004000100240FFB50746F0
:1016A00004468037B86883B00D46202802D0022057
:1016B00007B0F0BD002D0CD00598002809D00120FE
:1016C000A1680003814206D12069002803D1E80700
:1016D00001D00120ECE7002038612120B860FEF73E
:1016E00099FF0190264640360598B0820598F08211
:1016F0000120A1680003814202D12069002802D0A4
:101700000295002515E00020029012E000228021C1
:10171000204600F055FF002818D10298002817D065
:101720002168007888620298401C0290F08A401E6E
:10173000F082F08A019B002806980090E6D10022F2
:101740004021204600F03CFF002808D00320AFE7EE
:1017500028882168C005C00D8862AD1CE6E72020FE
:10176000B8600020A4E7FEE710B50D48C078002857
:1017700009D001280BD002280DD0032802D1002067
:10178000FEF75CFD10BD002000F084FF10BD0020BE
:10179000FEF7D6FD10BD002000F064FB10BD000078
:1017A00098060020F0B587B014216846FEF701FDC9
:1017B0003A48416B012421434163416B214005912B
:1017C000416B022631434163416B31400591426BCD
:1017D00004210A434263406B314D084005900520C7
:1017E000002229460007FEF70EFF012217023946A4
:1017F0002C48FEF708FF009500250520019402956E
:10180000694600070395FEF743FE3120000401906E
:101810000094694602942348FEF73AFE694621483F
:10182000009601950294FEF733FE402021263604EF
:1018300000906946019602941B48FEF729FEE002DB
:10184000009005206946019602940007FEF720FEED
:1018500020030090112000040190052069460294A5
:101860000007FEF715FE029569460E48009703959E
:101870000194FEF70DFE002211460520FEF732FF0F
:101880000520FEF723FF002211460720FEF72AFF5E
:101890000720FEF71BFF07B0F0BD0000001002405C
:1018A00031810000000400500008005010B51148BC
:1018B0000F490160FF21053141600021072281604D
:1018C00012020161C2600122416152028261202242
:1018D000C261802241620262816207220163C262A8
:1018E0004163FFF725FA002801D0FEF727FD10BD60
:1018F000003001407000002010B50A48084901601E
:101900000949416000218160F9220161C260816161
:10191000FFF722FC002801D0FEF710FD10BD0000EB
:1019200000200040D4000020FFF9000010B594B062
:101930001C210DA8FEF73DFC34216846FEF739FC5A
:1019400022482149016000242F2184604160046104
:101950007D214461C9008461C160FFF7FDFB00285F
:1019600001D0FEF7EBFC1948FFF7EFFD002801D08E
:10197000FEF7E4FC60200D90FF20F53013940E90EC
:101980000F9410941194129400220DA90F48FFF7A0
:1019900048FD002801D0FEF7D1FC0120009440034F
:1019A00001940294059003940494069469460C945F
:1019B0000648FFF77BFB002801D0FEF7BFFC034879
:1019C000FFF708FD14B010BD0044014020010020C5
:1019D00010B50D480B490160E12149024160002129
:1019E0008160C16001618161C16101620C2241625B
:1019F00042618162FFF7EDFD002801D0FEF79EFCF9
:101A000010BD0000004400406C010020F8B5484DB6
:101A10000126A8782C46803C002828D17D20C000D3
:101A200020603220A0806420A060A6710020E870B1
:101A300020736073A073E07320460521203001718C
:101A40003C482E710168A162416821638168A163ED
:101A5000C0682064374810300168216141686161C5
:101A60008168A161C168E16100692062AE700020F7
:101A700001F08AF92E48A179303801F0C5FB2C48D5
:101A800001232DA22438216801F0AEFB2848A1884B
:101A900003232AA20C3801F0A7FB2548022326A223
:101AA0001838A16801F0A0FBE878002101F018FCCB
:101AB00000210B2380220846009601F0BDF9012188
:101AC000192001F0A9FA1E48002306C81DA001F044
:101AD0004EFB332237230C211046009601F03CFACE
:101AE0000025E800001928300679C3793146467987
:101AF0001B06360231438679EAB236043143194374
:101B000003461E7830465E78360230439E78DB7896
:101B1000360430431B06184301F0BAFB6D1C042D3C
:101B2000DFDB0BA001F092FB01F0A0FAF8BD000092
:101B30009806002030000020487A00006D56000012
:101B40002400002049434534305F444453000000E2
:101B5000427574746F6E2077616974696E670000F6
:101B600070B5124D124C2879030000F0DDFD05041C
:101B7000090F14191600FFF7F7FD0D48C01D03E00B
:101B8000FEF7ACFB0A480D30206106E000F014F8C7
:101B90000748401CF8E700F06FF80520287170BD79
:101BA000FEF776FB02480A30EEE700003806002018
:101BB00054000020FEE7000004480179012902D00A
:101BC0000121017170470021FBE700009806002009
:101BD00070470000F8B501250526ED033607002201
:101BE00029463046FEF70FFD00222049012001F072
:101BF00051F81E4A0420521E1746396901F04AF86E
:101C0000012229463046FEF7FEFC194800790028DB
:101C10002BD1174C803CA279A188206801F06EF886
:101C200000F0DCFF1348226801689142F3D101798A
:101C3000A2799142EFD10089A18880B28842EAD18D
:101C4000002229463046FEF7DEFC0022074901202B
:101C500001F020F8054A0B20521E396901F01AF8EC
:101C6000012229463046FEF7CEFCF8BD5500002083
:101C7000980600200006002010B501F007F9FFF7D4
:101C8000C5FE10BDF8B50F460B4615460092032160
:101C900004460022C90200F01BF82026002812D1B9
:101CA0003B46002280212046009500F07DF8002868
:101CB00009D103213B46002249022046009500F04D
:101CC00007F8002803D0206E304320660320F8BDBB
:101CD000FFB585B00E460446002069460E9D1746A6
:101CE0000871FEF797FC411B0898451AFEF792FC15
:101CF0000390206823210C3002902A480068484352
:101D0000000D684346E003204002864206D1002FC2
:101D100004D1029801786846017100790898401C46
:101D200039D0FEF777FC0399401AA84205D2002D5E
:101D300003D0009800282BD02BE020684168E022D7
:101D4000914341606068C11FFD390CD10121A06839
:101D5000C903884202D04911884204D12068016831
:101D60004022914301600120A16A4003814207D1D2
:101D700021680A6882430A6021680A6802430A608F
:101D800001204034607700202077032009B0F0BDA7
:101D90000025401E0090206880683040B842B2D1D3
:101DA0000020F3E710000020FFB581B01E46044676
:101DB0000A9DFEF72FFC401B351AFEF72BFC074649
:101DC000264800684001000D684339E0701C38D097
:101DD000FEF720FCC01BA84205D2002D03D00098BE
:101DE00000282BD02BE020684168E022914341601D
:101DF0006068C11FFD390CD10121A068C903884268
:101E000002D04911884204D12068016840229143E0
:101E100001600120A16A4003814207D121680A685C
:101E200082430A6021680A6802430A600120403444
:101E3000607700202077032005B0F0BD0025401E0C
:101E40000090206881680298884305D0002103989B
:101E50008142BBD10020EFE70121F8E7100000200C
:101E60007047000010B588B004461C22134968462C
:101E7000FEF786F9124B6A469968002C02D0012CB5
:101E800009D012E00020840014598C4208D8401C6C
:101E90000728F8DB09E00620840014598C4202D29E
:101EA0008000115801E0401EF6D5054899600223D4
:101EB00004A2683001F098F908B010BDB8410008DC
:101EC00018060020487A000010B5FEF7A9FB10BDE7
:101ED00030B593B038216846FEF76BF90025012034
:101EE0000E950F95109540021195FEF7FFFB022409
:101EF000E001039000944020059008200A908003A0
:101F00000B90079400020C900894000104950D902A
:101F100009956846FEF718FD002801D072B6FEE765
:101F200007200EA931C102210EA81195FEF704FC6D
:101F3000002801D072B6FEE713B030BD7047000034
:101F400010B50248FFF784F910BD0000D40000204E
:101F5000F0B502681A4B0124A4071A4D984203D029
:101F6000A04201D0A84203D17026B2434E6832434A
:101F7000154E164F98420AD0A04208D0A84206D06B
:101F8000134CA04203D0B04201D0B84204D1032484
:101F90002402A243CC6822438024A2434C692243FA
:101FA00002608A68C2620A688262984203D0B042C4
:101FB00001D0B84201D10969016301214161F0BD3D
:101FC000002C014000040040004401400048014052
:101FD00000200040F0B5026A520852000262056A11
:101FE00043688269164C184E224092080C68920091
:101FF0001443022295438A682A43124DA84204D012
:10200000B04202D0114FB84206D10827BA43CF6878
:102010001743042297433A46A84204D0B04202D064
:102020000A4DA84206D103252D02AB434D691D433D
:102030008B692B4343608461496841630262F0BD50
:102040008FFFFEFF002C014000440140004801408A
:1020500070B5026A10239A430262046A4368826977
:10206000164D2A4003252D02AA430D682D02154363
:10207000202294438A6812012243114CA04208D1C5
:102080001446CA688026B443120122434024A24366
:1020900005E00C4CA04202D00B4CA04208D1032416
:1020A000A402A3434C69A4001C438B699B002343F7
:1020B0004360856149688163026270BDFF8FFFFEE6
:1020C000002C0140004401400048014070B5026A04
:1020D000FF2301339A430262046A4368C269164DC2
:1020E0002A4092080D68920015430122520294433F
:1020F0008A6812022243114CA04208D11446CA68D1
:10210000C614B443120222430415A24305E00C4C4A
:10211000A04202D00B4CA04208D103242403A343C5
:102120004C6924011C438B691B0123434360C56137
:102130004968C163026270BD8FFFFEFF002C014041
:10214000004401400048014030B5026A01231B03EE
:102150009A430262046A4568C269124B1A4003231B
:102160001B029A430B681B02134301225203944340
:102170008A68120322430C4CA04205D00B4CA042AB
:1021800002D00B4CA04206D12C460125AD03AC4336
:102190004D69AD0125434560C36149680164026230
:1021A00030BD0000FF8FFFFE002C014000440140C5
:1021B0000048014070B5026A01263604B24302624B
:1021C000036A4268446D0E4D2C400D68254374002F
:1021D000A3430C8924041C430A4B984205D00A4BA4
:1021E000984202D0094B984203D14B69B2431B027B
:1021F0001A434260456549688165046270BD00000C
:102200008FFFFEFF002C01400044014000480140C8
:1022100070B5026A01231B059A430262036A426891
:10222000456D104C25400C6824022C4301256D059A
:10223000AB430D892D051D430B4B984205D00B4B2D
:10224000984202D00A4B984206D101261346B604A2
:102250004A69B34392021A43426044654968C165C2
:10226000056270BDFF8FFFFE002C0140004401405D
:102270000048014010B5FDF7A7FFC100081A322140
:10228000081A10BD10B5018DC90707D001684A684A
:1022900001235B049A43C36A1A434A60018D89078C
:1022A00007D501684A6801231B049A43036B1A434C
:1022B0004A60018D490707D501684A6801239B04DC
:1022C0009A43436B1A434A60018D090707D5016899
:1022D0004A680123DB039A43836B1A434A60018DEA
:1022E000C90607D50268916801231B039943C36B94
:1022F00019439160018D890607D501688A68012319
:102300005B039A43036C1A438A60018D490612D518
:1023100003685A6801210905446C8A4322435A60C4
:10232000426C8A4207D10268516803235B059943D6
:10233000836C19435160018D090607D501684A680D
:102340000123DB04C06C9A4302434A6010BD0000C5
:10235000FEB506460025803604463561FEF75AF97B
:10236000019020680068124F000709D501210097ED
:10237000002249052046019B00F022F900280DD1DA
:102380002068006840070BD50121009700228905CD
:102390002046019B00F014F9002801D00320FEBD67
:1023A0002020B060F060E566256735710020FEBD35
:1023B000FFFFFF01F8B50446016880682369E569FD
:1023C0001843636900262B431843734A0B68734D07
:1023D0002B4003430B602068416803231B03994390
:1023E000E368194341602168A069914201D0236AE2
:1023F00018438B686A4D2B4003438B602068C16A89
:10240000636A090909011943C1626649236866487C
:102410008B420AD140698007800F09D001282CD057
:10242000022828D0032816D113E060498B4201D13D
:10243000002111E093420ED1416903208002014046
:102440000AD001208002091A17D0091A13D081423C
:1024500001D1082100E010210120554D554FC00346
:1024600093423DD100290AD0022911D0042909D074
:10247000082934D10BE00221EEE70421ECE7FEF756
:1024800007FA01E0FEF718FA050001D179E00546E8
:10249000606A4000395A28460091FDF72BFE6768B4
:1024A00079007918814267D83903814264D30023C7
:1024B00028461946009AFDF733FE020E0902030270
:1024C000780811431818002251413A460023FDF7BD
:1024D00027FE03210902384A411A91424FD94BE0A5
:1024E000E269824227D1002906D0022907D00429B7
:1024F00007D0082940D108E0FEF7CAF903E02846D2
:1025000003E0FEF7D9F900283BD0616A4900795A07
:10251000FDF7F0FD616840004A088018FDF7EAFD0C
:102520000146264A1039914226D8511C0140000725
:10253000400F084323E0002906D0022907D00429D0
:1025400007D0082918D108E0FEF7A2F903E02846D1
:1025500003E0FEF7B1F9002813D0616A4900795A07
:10256000FDF7C8FD61684A088018FDF7C3FD014604
:10257000124A1039914201D9012602E080B2216845
:10258000C8602046012140304185018500206067F8
:10259000A0673046F8BD000000800040F369FFCF1F
:1025A000FFF4FF1100380140401002400044004099
:1025B0000024F400E4330008FFFC0F00EFFF0000EC
:1025C000FFB581B005461746044680350A9E54E0A3
:1025D000701C52D0FEF71EF80499401AB0422FD852
:1025E000002E2DD020680168490746D5C069C04338
:1025F000000542D401202168C0020862EFF3108078
:10260000012181F3108821680B68FF22A1329343D6
:102610000B6080F31088EFF31080012181F31088A4
:1026200021688A68520852008A6080F3108820204E
:10263000A860E860286100202871032005B0F0BD83
:10264000EFF31080012181F3108821680A68FF23CD
:10265000A1339A430A6080F31088EFF310800121C0
:1026600081F3108821688A68520852008A6080F3DA
:1026700010882020A860E860DDE72068C169029822
:10268000884304D00020B842A2D00020D6E7012021
:10269000F9E7000070B511490123032502248A7966
:1026A000002802D0012813D106E0012A0FD0032A06
:1026B00009D0022A09D00BE0012A04D0032A04D051
:1026C000022A04D004E08C7102E08B7100E08D716D
:1026D00002488979503000F097FD70BD180600203F
:1026E0000FB410B503A9044B044A029800F05CF83B
:1026F00010BC08BC04B01847252B00086C00002053
:102700000FB410B504A9074B02AA039800F04CF8C7
:10271000044602A9002000F0B1F9204610BC08BC14
:1027200004B018477D2A000830B47446641E25782A
:10273000641CAB4200D21D46635D5B00E31830BCF5
:10274000184700008307FF22DB0E9A408907090E15
:102750009940002808DB830809489B001B1818686B
:1027600090430843186070470007000F083883083B
:1027700004489B001B18D86990430843D8617047F0
:1027800000E400E000ED00E002E008C8121F08C10C
:10279000002AFAD170477047002001E001C1121FE2
:1027A000002AFBD170470000FFB58FB00F460446EA
:1027B000002606E025280AD0129A11999047641C39
:1027C000761C20780028F5D1304613B0F0BD0025E6
:1027D00001219F4A009500E00543641C23780846C8
:1027E000203B98401042F7D120782E2815D10420A4
:1027F00005436078641C2A280AD101CF641C00902C
:102800000BE000990A22514330394018641C0090B3
:102810002078014630390929F3D920786C280ED068
:1028200004DC4C2813D06A2812D104E074280ED09E
:102830007A280DD10BE001204005054307E0012176
:10284000090562780D43824201D16D18641C641C35
:102850002078692849D008DC0028B5D058286CD0E9
:1028600063280FD0642808D13FE070286AD073280D
:1028700011D075285FD078285FD0129A11999047AF
:10288000761CE3E03878694608720020487202A896
:102890000190012003E0386801900020C0433F1DF3
:1028A00069070CD5002500E06D1C00998D420FDAF8
:1028B0008542F9DB0199495D0029F5D108E0002541
:1028C00000E06D1C8542FCDB0199495D0029F8D1CF
:1028D000761907E0019801990078491C0191129A34
:1028E000119990476D1EF5D2B0E00A2002900021A8
:1028F0006802400F039102280CD001CFC117844613
:1029000000290DDA60460A46404200219141844682
:102910002D2008E0FF1DFF08FF0003CF8446EFE7EE
:10292000280504D52B206A46107401203DE0E807F5
:102930003BD02020F7E70A2000E01020002103917F
:10294000029007E010200290002104200543082097
:10295000039100906802400F022811D001CF00219E
:10296000844600200D90280720D5207886467028C0
:102970000CD0029A1020039B42401A430CD015E061
:10298000FF1DFF08FF0003CF8446EAE740206A46A8
:10299000107401200D900CE06046084306D03020F2
:1029A0006A4610747046507402200D9020785828A2
:1029B00004D028A001900DA80E900DE02AA0F9E700
:1029C0006046039B029AFDF7ABFB019B84469B5C30
:1029D0000E9A521E0E92137060460843F0D10E9864
:1029E00005A9081A20300190680701D40120009041
:1029F00000990198814201DD081A00E000200025BD
:102A0000009006E004A8129A405D119990476D1C51
:102A1000761C0D988542F5DB04E0129A302011995E
:102A20009047761C0099481E00900029F5DC08E0CC
:102A30000E980E990078491C0E91129A11999047A0
:102A4000761C0199481E01900029F1DC641CB8E64F
:102A50000928010030313233343536373839616274
:102A60006364656600000000303132333435363738
:102A70003839414243444546000000000A68531C6F
:102A80000B60107070470000F8B5022000F016FCD3
:102A9000214F00263C46803C78782546203500288A
:102AA00015D0E07B012807D002280AD01BA000F037
:102AB000CDFBE6737E702BE0E06900F0C7FB2E7162
:102AC000F7E7206A00F0C2FB01202871F1E73878AF
:102AD00000281FD0207B032806D0607B032809D064
:102AE000A07B03280DD012E0206900F0AFFB267315
:102AF000032004E0606900F0A9FB667304202871DC
:102B000005E0A06900F0A2FB02202871A6733E70C8
:102B100000F0ACFAF8BD0000980600204661756C24
:102B20007421000013B5044B012269460348FEF7E7
:102B3000B5FD00981CBD0000FFFF00006C010020E7
:102B4000FDF776FDFFF7C4F9FEF72CFEFEF7AEFEAB
:102B5000FEF7ECFEFEF73CFFFEF7CEFE19A0FFF7F6
:102B6000BFFD01220525D4032D0721462846FDF788
:102B70004AFD002221462846FDF745FD0122214657
:102B80002846FDF740FD134C0020A07000F07EF9B0
:102B9000FEF73CFFFF20F530FDF7EEFB0E48FEF799
:102BA00029FB2546603D6078002802D12078002866
:102BB00001D0FFF769FF28790528F4D0FEF7D0FF90
:102BC000F1E7000048656C6C6F576F726C64210A06
:102BD0000000000098060020D4000020F8B501276E
:102BE000FF030520002239460007FDF70CFD0022F7
:102BF0001149012000F04EF8104A0F490A2000F058
:102C000049F80F4D0F4E00240C490D4800F01CF8F8
:102C1000A878697800040902084329780843A100CC
:102C2000641CE4B27050042CEED305200122394616
:102C30000007FDF7E8FCF8BD550000205400002017
:102C40006800002000060020FEB5044600207D2517
:102C50000F460646ED0001900423224601A90C48C8
:102C60000095FEF70DF92078761CAE4201D20106E0
:102C7000F2D561782170A1786170E178A170002FA0
:102C800000D03870AE4201D20120FEBD0020FEBD52
:102C900070000020FEB515466A4610710878507124
:102CA000487890718878D07100207D260446F6001F
:102CB0000290042302AA01A909480096FEF7E0F851
:102CC0006846007A641C642C01D24106F1D5002DBF
:102CD00000D02870642C01D30120FEBD0020FEBD71
:102CE0007000002038B56B4619700C0A5C70090C36
:102CF00099706946FFF7CEFF38BD0000F7B504466E
:102D000082B0002069461546087001260527024654
:102D1000F6033F0731463846FDF775FC00220D49A2
:102D20000120FFF7B7FF6A4621460920FFF7DAFFC7
:102D300004460398290401436A460820FFF7D2FF9E
:102D400020430546012231463846FDF75CFC284603
:102D500005B0F0BD5500002030B580280ED24029C6
:102D60000CD24D0701236D0FAB40C908054CC901BA
:102D70000818215C012A02D09943215430BD19431F
:102D8000FBE700000002002010B50021064B0122E5
:102D90009202002805D0FF245C54491C9142F8D3CC
:102DA00010BD0024F8E7000000020020FFB550002D
:102DB000022184B0081A009004985442002580280B
:102DC00038D20598402835D205984019C7B20498E2
:102DD000001B03900498001902900598401B019075
:102DE0000FE00398C6B206E039463046079AFFF76F
:102DF000B3FF761EF6B20298B042F5DD7F1E019851
:102E0000FFB2B842EDDD0098A84209DC6D1C6A00F3
:102E10001118491C0091EC4202D1A04200DC0020B4
:102E2000A04205DD641C009861000818401C009059
:102E3000002CC9DD08B0F0BDF8B5904201D80446B9
:102E400000E014460094904200D81046044699428F
:102E500001D80E4600E01E46994200D819460F469A
:102E60000EE0009D06E031462846069AFFF774FF03
:102E70006D1CEDB2A54201D8802DF4D3761CF6B2BC
:102E8000BE4201D8402EECD3F8BD000010B500F0D2
:102E9000A4F86420FDF770FA002000F0C3F82020A9
:102EA00000F04AF9002000F047F9B02000F044F9A2
:102EB000C82000F041F9002000F03EF9102000F099
:102EC0003BF9402000F038F9FF2000F09CF8A120E9
:102ED00000F032F9A62000F02FF9A82000F02CF91C
:102EE0003F2000F029F9A42000F026F9D32000F0BB
:102EF00023F9002000F020F9D52000F01DF9F02082
:102F000000F01AF9D92000F017F9222000F014F986
:102F1000DA2000F011F9122000F00EF9DB2000F0A9
:102F20000BF9202000F008F98D2000F005F914209D
:102F300000F002F9012000F075F80020FFF724FFEF
:102F400000F094F8034800210180418001210171C3
:102F500010BD000014000020FFB584B0074606989D
:102F60000E46C41B00D564420798801B00D5404222
:102F7000009000200699C0438F4201D2012100E059
:102F80000146039107998E4200D2012002900098D9
:102F90000D9A251A0698FFF7DFFE0098404201902F
:102FA00013E0314638460D9AFFF7D6FE01996800C6
:102FB000884204DD00996D1A03997918CFB2A042B6
:102FC00003DA02982D193018C6B206988742E8D164
:102FD00007988642E5D108B0F0BD10B500F032F890
:102FE00005242407002220212046FDF70CFB0A209F
:102FF000FDF7C2F9012220212046FDF704FB0A203B
:10300000FDF7BAF910BD10B50446812000F094F820
:10301000204600F091F810BD014A108051807047A1
:103020001400002010B50649002802D0AF2001226C
:1030300001E0AE2000224A7100F07EF810BD0000D1
:103040001400002010B50524240700220121204689
:10305000FDF7D9FA002210212046FDF7D4FAFF210E
:10306000002201312046FDF7CEFA10BD70B50B4DA0
:1030700000242046B030C0B200F05EF8002000F01E
:103080005BF8102000F058F8E0014019802100F0B2
:1030900060F8641CE4B2082CEBD370BD0002002081
:1030A000FFB582B00298203801905F280BD22148EA
:1030B0006A460188177BC919802904D84088567B45
:1030C0008019402802D9002006B0F0BD002526E076
:1030D00001980499704340194000085A0024009058
:1030E0001AE00098A040000408D51248059A81789B
:1030F000007849190019C9B2C0B20AE00598002841
:1031000015D000220B488178007849190019C9B2FE
:10311000C0B2FFF721FE641CA742E2D86D1CAE428C
:10312000D6D804480188C91901800298CCE7012249
:10313000E8E700001400002010B50446FF21052038
:10314000002201310007FDF75EFA204600F025F865
:1031500010BD70B505460C4601220520110200077E
:10316000FDF751FA2146284600F032F870BDF0B55F
:103170001D460E46174604460AE02B463A4631469F
:10318000FFF78EFF2178884201D0C8B2F0BD641CE1
:1031900020780028F1D1C0B2F0BD70B5002405261A
:1031A00005463607002201213046FDF72CFAEA09D0
:1031B00010213046FDF727FA6806050E0122114658
:1031C0003046FDF720FA641CE4B2082CEAD370BD47
:1031D00070B50D460646002403E0305DFFF7DDFFC5
:1031E000641CAC42F9D370BD70B504461E4615464A
:1031F000084600F0B7F8A56020602A4633466168AB
:1032000000F088F870BD000010B5012903D0022934
:1032100003D003290AD006A100E007A105A282601D
:10322000016003C8002300F075F810BD04A1F5E7A4
:1032300053696E650000000053717561726500008E
:10324000547269616E676C650000000038B5054610
:10325000FDF712F8C4B201200090402380223621ED
:103260000020FFF7E9FD37212046FFF7D5FE06488D
:10327000002306C82846FFF77AFFFF2101310348E3
:10328000FDF7B9F938BD00001C0000200004005013
:1032900070B515460446FEF7EDFF0B214D430C3586
:1032A000C0B2E9B2FFF7B8FE0349204606C90123C0
:1032B000FFF75DFF70BD00002400002010B504463C
:1032C00001217820FFF7A8FE0449034806C9005DE4
:1032D0000123FFF7E5FE10BD2C0000202400002094
:1032E00038B5002914D000250B214843044610307E
:1032F000C1B20C342B4603220420FFF757FD0A34D9
:10330000E3B2E1B2802200200095FFF725FE38BD30
:103310000125E9E7F8B50B214B430C330646DCB237
:10332000154635202146FFF777FE00200090204605
:103330000930C3B2802221463520FFF77DFD30469B
:10334000074E012306CE083EFFF711FF21467020ED
:10335000FFF762FE06CE28460123FFF708FFF8BDFF
:1033600024000020FEB50546002426460A211B48FD
:10337000FCF71FFF0027009701972A4618A168460F
:103380000297FFF7BDF96846FCF71EFF134D401E7C
:103390000ED469462C230A5C2A55641C761C032E25
:1033A00004D1002804D02B550026641C401EF2D501
:1033B0002F550A48FCF708FFC20F002112185410BD
:1033C00007E0421A5219203A6B5CD67F6E54D377CD
:1033D000491C8C42F5DC0148FEBD00000C060020B3
:1033E00025640000010002000400060008000A0035
:1033F0000C001000200040008000000100000000D0
:1034000000000000000000000000000000000000BC
:1034100000000000000000000000000001000000AB
:10342000020000000300000004000000060000008D
:103430000700000008000000090000000000000074
:10344000000000000000000000000000010000007B
:103450000200000003000000040000000000000063
:10346000000000000000000000000000000000005C
:1034700000100010001000100010001000000010DC
:1034800000000000002800280028000000000000C4
:10349000000000000000000000240024007C002444
:1034A0000048007C0048004800000000003800543C
:1034B0000050003800140054005400380010000080
:1034C0000020005400580030002800540014000868
:1034D0000000000000100028002800100034004800
:1034E0000048003400000000001000100010000030
:1034F00000000000000000000000000000080010B4
:1035000000200020002000200020002000100008E3
:10351000002000100008000800080008000800084B
:1035200000100020001000380010002800000000EB
:10353000000000000000000000000000001000106B
:10354000007C0010001000000000000000000000DF
:10355000000000000000000000000010001000103B
:103560000000000000000000000000380000000023
:10357000000000000000000000000000000000004B
:1035800000000010000000000008000800100010FB
:10359000001000100020002000000000003800444F
:1035A000004400540044004400440038000000007F
:1035B000001000300050001000100010001000102B
:1035C000000000000038004400440004000800101F
:1035D0000020007C000000000038004400040018B7
:1035E0000004000400440038000000000008001837
:1035F000002800280048007C0008000800000000A7
:10360000007C0040004000780004000400440038C2
:1036100000000000003800440040007800440044EE
:103620000044003800000000007C00040008001086
:10363000001000200020002000000000003800449E
:1036400000440038004400440044003800000000FA
:103650000038004400440044003C000400440038AA
:10366000000000000000000000100000000000004A
:10367000000000100000000000000000000000102A
:10368000000000000000001000100010000000000A
:10369000000C003000400030000C00000000000072
:1036A000000000000000007C0000007C0000000022
:1036B0000000000000000000006000180004001876
:1036C0000060000000000000003800440004000812
:1036D000001000100000001000000000003800443E
:1036E000004C0054005C0040004000380000000026
:1036F00000100028002800280028007C0044004416
:1037000000000000007800440044007800440044B9
:1037100000440078000000000038004400400040F1
:1037200000400040004400380000000000700048E5
:1037300000440044004400440048007000000000C1
:10374000007C00400040007C004000400040007CC5
:1037500000000000007C0040004000780040004075
:1037600000400040000000000038004400400040DD
:10377000005C0044004400380000000000440044A5
:103780000044007C00440044004400440000000069
:103790000038001000100010001000100010003859
:1037A0000000000000040004000400040004000401
:1037B0000044003800000000004400480050006051
:1037C0000050004800480044000000000040004055
:1037D00000400040004000400040007C000000002D
:1037E0000044006C006C0054004400440044004459
:1037F0000000000000440064006400540054004CC9
:10380000004C004400000000003800440044004424
:1038100000440044004400380000000000780044E8
:1038200000440044007800400040004000000000D8
:103830000038004400440044004400440054003870
:103840000004000000780044004400440078004870
:1038500000480044000000000038004400400030F0
:10386000000800040044003800000000007C001044
:1038700000100010001000100010001000000000E8
:103880000044004400440044004400440044003824
:1038900000000000004400440044002800280028E4
:1038A00000100010000000000044004400540054C8
:1038B0000054006C0028002800000000004400288C
:1038C000002800100010002800280044000000001C
:1038D00000440044002800280010001000100010D0
:1038E00000000000007C0004000800100010002010
:1038F0000040007C000000000018001000100010C4
:10390000001000100010001000100018002000200F
:103910000010001000100010000800080000000057
:1039200000300010001000100010001000100010F7
:1039300000100030001000280028004400000000A3
:103940000000000000000000000000000000000077
:103950000000000000000000000000FE0020001039
:103960000000000000000000000000000000000057
:103970000000000000380044003C0044004C0034CB
:103980000000000000400040005800640044004473
:1039900000640058000000000000000000380044EF
:1039A0000040004000440038000000000004000413
:1039B0000034004C00440044004C0034000000007F
:1039C0000000000000380044007C00400044003843
:1039D00000000000000C0010007C0010001000101F
:1039E0000010001000000000000000000034004C37
:1039F00000440044004C00340004007800400040C3
:103A000000580064004400440044004400000000EA
:103A100000100000007000100010001000100010D6
:103A200000000000001000000070001000100010E6
:103A300000100010001000E000400040004800505E
:103A400000600050004800440000000000700010BA
:103A50000010001000100010001000100000000006
:103A6000000000000078005400540054005400543A
:103A70000000000000000000005800640044004402
:103A80000044004400000000000000000038004432
:103A90000044004400440038000000000000000022
:103AA0000058006400440044006400580040004096
:103AB000000000000034004C00440044004C00347E
:103AC00000040004000000000058006400400040B2
:103AD00000400040000000000000000000380044EA
:103AE00000300008004400380000000000200020E2
:103AF00000780020002000200020001800000000B6
:103B0000000000000044004400440044004C003425
:103B100000000000000000000044004400280028CD
:103B200000280010000000000000000000540054B5
:103B30000054006C00280028000000000000000075
:103B4000004400280010001000280044000000007D
:103B5000000000000044004400280028001000106D
:103B60000010006000000000007C00080010002031
:103B70000040007C00000000001800100010001041
:103B8000002000200010001000100018001000108D
:103B900000100010001000100010001000100010A5
:103BA0000030001000100010000800080010001085
:103BB000001000300000000000000074004C000005
:103BC00000000000000000000000000000000000F5
:103BD0000000000000000000002000200020002065
:103BE00000200000002000000050005000500000A5
:103BF00000000000000000000050005000F80050DD
:103C000000F80050005000000020007800A0007074
:103C1000002800F00020000000C000C800100020B4
:103C20000040009800180000004000A000A00040E4
:103C300000A8009000680000003000300020004024
:103C400000000000000000000010002000400040C4
:103C50000040002000100000004000200010001074
:103C60000010002000400000002000A8007000F8B4
:103C7000007000A80020000000000020002000F8D4
:103C800000200020000000000000000000000000F4
:103C9000003000300020000000000000000000F8AC
:103CA0000000000000000000000000000000000014
:103CB000000000300030000000000008001000206C
:103CC000004000800000000000700088009800A8FC
:103CD00000C8008800700000002000600020002064
:103CE00000200020007000000070008800080070B4
:103CF0000080008000F8000000F80008001000308C
:103D00000008008800700000001000300050009093
:103D100000F800100010000000F8008000F000081B
:103D2000000800880070000000380040008000F0AB
:103D3000008800880070000000F8000800080010EB
:103D400000200040008000000070008800880070A3
:103D500000880088007000000070008800880078EB
:103D60000008001000E0000000000000002000003B
:103D70000020000000000000000000000020000003
:103D8000002000200040000000080010002000403B
:103D900000200010000800000000000000F80000F3
:103DA00000F80000000000000040002000100008A3
:103DB0000010002000400000007000880008003063
:103DC00000200000002000000070008800A800B85B
:103DD00000B00080007800000020005000880088BB
:103DE00000F800880088000000F00088008800F0DB
:103DF0000088008800F000000070008800800080CB
:103E0000008000880070000000F0008800880088B2
:103E10000088008800F0000000F80080008000F0BA
:103E20000080008000F8000000F80080008000F0B2
:103E30000080008000800000007800880080008002
:103E4000009800880078000000880088008800F84A
:103E500000880088008800000070002000200020FA
:103E6000002000200070000000380010001000103A
:103E700000100090006000000088009000A000C0CA
:103E800000A000900088000000800080008000807A
:103E90000080008000F80000008800D800A800A87A
:103EA00000A80088008800000088008800C800A8DA
:103EB0000098008800880000007000880088008852
:103EC000008800880070000000F00088008800F082
:103ED000008000800080000000700088008800885A
:103EE00000A800900068000000F00088008800F042
:103EF00000A0009000880000007000880080007022
:103F0000000800880070000000F800A800200020D1
:103F10000020002000200000008800880088008821
:103F200000880088007000000088008800880088F1
:103F3000008800500020000000880088008800A849
:103F400000A800A800500000008800880050002051
:103F50000050008800880000008800880050002081
:103F6000002000200020000000F800080010007071
:103F70000040008000F80000007800400040004051
:103F80000040004000780000000000800040002059
:103F90000010000800000000007800080008000879
:103FA0000008000800780000002000500088000091
:103FB0000000000000000000000000000000000001
:103FC0000000000000F80000006000600020001009
:103FD0000000000000000000000000000060001071
:103FE00000700090007800000080008000B000C8E1
:103FF000008800C800B000000000000000700088C9
:104000000080008800700000000800080068009828
:104010000088009800680000000000000070008820
:1040200000F80080007000000010002800200070E0
:104030000020002000200000000000000070009818
:1040400000980068000800000080008000B000C8F0
:104050000088008800880000002000000060002028
:104060000020002000700000001000000010001070
:10407000001000900060000000800080009000A010
:1040800000C000A000900000006000200020002080
:1040900000200020007000000000000000D000A8F8
:1040A00000A800A800A800000000000000B000C8A0
:1040B0000088008800880000000000000070008870
:1040C00000880088007000000000000000B000C8F8
:1040D00000C800B0008000000000000000680098E8
:1040E00000980068000800000000000000B000C850
:1040F0000080008000800000000000000078008048
:104100000070000800F000000020002000F80020EF
:104110000020002800100000000000000088008837
:1041200000880098006800000000000000880088F7
:104130000088005000200000000000000088008877
:1041400000A800A8005000000000000000880050F7
:104150000020005000880000000000000088008857
:1041600000780008008800000000000000F800103F
:104170000020004000F80000001000200020004057
:10418000002000200010000000200020002000007F
:10419000002000200020000000400020002000102F
:1041A0000020002000400000004000A80010000097
:1041B0000000000000000000010000000A000000F4
:1041C00064000000E803000010270000A086010042
:1041D00040420F005357315F50726573736564003E
:1041E0005357325F5072657373656400456E635F49
:1041F0005072657373656400576176650000000056
:10420000416D706C69000000456E635F436C6F63C5
:104210006B000000456E635F416E7469436C6F63B1
:104220006B000000537465700000000046726571F9
:104230000000000054420008000000207000000050
:1042400088270008C442000870000020300A0000DF
:10425000982700080001020001000000040000008F
:10426000000000000024F400000000000000000036
:1042700006080000C83B0008070A00005C3400087C
:1042800050574D00F84100082C4200082442000815
:1042900000420008D4410008E0410008EC41000859
:1042A000084200081442000800000000000003005B
:1042B000000400000100000258000020000000007F
:0442C00000000000FA
:04000005080000C12E
:00000001FF
